{
  "_format": "hh-sol-artifact-1",
  "contractName": "bittoTokenstorage",
  "sourceName": "contracts/token/bittoToken.storage.sol",
  "abi": [
    {
      "inputs": [],
      "name": "admin",
      "outputs": [
        {
          "internalType": "address",
          "name": "",
          "type": "address"
        }
      ],
      "stateMutability": "view",
      "type": "function"
    },
    {
      "inputs": [],
      "name": "implementation",
      "outputs": [
        {
          "internalType": "address",
          "name": "",
          "type": "address"
        }
      ],
      "stateMutability": "view",
      "type": "function"
    }
  ],
  "bytecode": "0x608060405234801561001057600080fd5b50610153806100206000396000f3fe608060405234801561001057600080fd5b50600436106100365760003560e01c80635c60da1b1461003b578063f851a44014610059575b600080fd5b610043610077565b6040516100509190610102565b60405180910390f35b61006161009d565b60405161006e9190610102565b60405180910390f35b600160009054906101000a900473ffffffffffffffffffffffffffffffffffffffff1681565b60008054906101000a900473ffffffffffffffffffffffffffffffffffffffff1681565b600073ffffffffffffffffffffffffffffffffffffffff82169050919050565b60006100ec826100c1565b9050919050565b6100fc816100e1565b82525050565b600060208201905061011760008301846100f3565b9291505056fea2646970667358221220b3f80c126c7701f0bc84fbe072198642c446610f1248a50324e5a01f4442fbab64736f6c63430008130033",
  "linkReferences": {},
  "deployedLinkReferences": {}
}