{
  "_format": "hh-sol-artifact-1",
  "contractName": "ERC20Proxy",
  "sourceName": "contracts/token/bittoToken.sol",
  "abi": [
    {
      "inputs": [
        {
          "internalType": "address",
          "name": "_logic",
          "type": "address"
        },
        {
          "internalType": "address",
          "name": "_admin",
          "type": "address"
        },
        {
          "internalType": "bytes",
          "name": "_data",
          "type": "bytes"
        }
      ],
      "stateMutability": "nonpayable",
      "type": "constructor"
    },
    {
      "anonymous": false,
      "inputs": [
        {
          "indexed": false,
          "internalType": "address",
          "name": "previousAdmin",
          "type": "address"
        },
        {
          "indexed": false,
          "internalType": "address",
          "name": "newAdmin",
          "type": "address"
        }
      ],
      "name": "AdminChanged",
      "type": "event"
    },
    {
      "anonymous": false,
      "inputs": [
        {
          "indexed": true,
          "internalType": "address",
          "name": "beacon",
          "type": "address"
        }
      ],
      "name": "BeaconUpgraded",
      "type": "event"
    },
    {
      "anonymous": false,
      "inputs": [
        {
          "indexed": true,
          "internalType": "address",
          "name": "implementation",
          "type": "address"
        }
      ],
      "name": "Upgraded",
      "type": "event"
    },
    {
      "stateMutability": "payable",
      "type": "fallback"
    },
    {
      "inputs": [],
      "name": "getAdmin",
      "outputs": [
        {
          "internalType": "address",
          "name": "",
          "type": "address"
        }
      ],
      "stateMutability": "view",
      "type": "function"
    },
    {
      "inputs": [],
      "name": "getImplementation",
      "outputs": [
        {
          "internalType": "address",
          "name": "",
          "type": "address"
        }
      ],
      "stateMutability": "view",
      "type": "function"
    },
    {
      "stateMutability": "payable",
      "type": "receive"
    }
  ],
  "bytecode": "0x60806040523480156200001157600080fd5b5060405162001b1438038062001b14833981810160405281019062000037919062000743565b828282828162000050828260006200006f60201b60201c565b50506200006382620000ad60201b60201c565b50505050505062000a85565b62000080836200010b60201b60201c565b6000825111806200008e5750805b15620000a857620000a683836200016260201b60201c565b505b505050565b7f7e644d79422f17c01e4894b5f4f588d331ebfa28653d42ae832dc59e38c9798f620000de6200019860201b60201c565b82604051620000ef929190620007cf565b60405180910390a16200010881620001f760201b60201c565b50565b6200011c81620002e260201b60201c565b8073ffffffffffffffffffffffffffffffffffffffff167fbc7cd75a20ee27fd9adebab32041f755214dbc6bffa90cc0225b39da2e5c2d3b60405160405180910390a250565b606062000190838360405180606001604052806027815260200162001aed60279139620003ae60201b60201c565b905092915050565b6000620001ce7fb53127684a568b3173ae13b9f8a6016e243e63b6e8ee1178d6a717850b5d610360001b6200044060201b60201c565b60000160009054906101000a900473ffffffffffffffffffffffffffffffffffffffff16905090565b600073ffffffffffffffffffffffffffffffffffffffff168173ffffffffffffffffffffffffffffffffffffffff160362000269576040517f08c379a0000000000000000000000000000000000000000000000000000000008152600401620002609062000883565b60405180910390fd5b806200029e7fb53127684a568b3173ae13b9f8a6016e243e63b6e8ee1178d6a717850b5d610360001b6200044060201b60201c565b60000160006101000a81548173ffffffffffffffffffffffffffffffffffffffff021916908373ffffffffffffffffffffffffffffffffffffffff16021790555050565b620002f3816200044a60201b60201c565b62000335576040517f08c379a00000000000000000000000000000000000000000000000000000000081526004016200032c906200091b565b60405180910390fd5b806200036a7f360894a13ba1a3210667c828492db98dca3e2076cc3735a920a3ca505d382bbc60001b6200044060201b60201c565b60000160006101000a81548173ffffffffffffffffffffffffffffffffffffffff021916908373ffffffffffffffffffffffffffffffffffffffff16021790555050565b60606000808573ffffffffffffffffffffffffffffffffffffffff1685604051620003da91906200098a565b600060405180830381855af49150503d806000811462000417576040519150601f19603f3d011682016040523d82523d6000602084013e6200041c565b606091505b509150915062000435868383876200046d60201b60201c565b925050509392505050565b6000819050919050565b6000808273ffffffffffffffffffffffffffffffffffffffff163b119050919050565b60608315620004dd576000835103620004d45762000491856200044a60201b60201c565b620004d3576040517f08c379a0000000000000000000000000000000000000000000000000000000008152600401620004ca90620009f3565b60405180910390fd5b5b829050620004f0565b620004ef8383620004f860201b60201c565b5b949350505050565b6000825111156200050c5781518083602001fd5b806040517f08c379a000000000000000000000000000000000000000000000000000000000815260040162000542919062000a61565b60405180910390fd5b6000604051905090565b600080fd5b600080fd5b600073ffffffffffffffffffffffffffffffffffffffff82169050919050565b60006200058c826200055f565b9050919050565b6200059e816200057f565b8114620005aa57600080fd5b50565b600081519050620005be8162000593565b92915050565b600080fd5b600080fd5b6000601f19601f8301169050919050565b7f4e487b7100000000000000000000000000000000000000000000000000000000600052604160045260246000fd5b6200061982620005ce565b810181811067ffffffffffffffff821117156200063b576200063a620005df565b5b80604052505050565b6000620006506200054b565b90506200065e82826200060e565b919050565b600067ffffffffffffffff821115620006815762000680620005df565b5b6200068c82620005ce565b9050602081019050919050565b60005b83811015620006b95780820151818401526020810190506200069c565b60008484015250505050565b6000620006dc620006d68462000663565b62000644565b905082815260208101848484011115620006fb57620006fa620005c9565b5b6200070884828562000699565b509392505050565b600082601f830112620007285762000727620005c4565b5b81516200073a848260208601620006c5565b91505092915050565b6000806000606084860312156200075f576200075e62000555565b5b60006200076f86828701620005ad565b93505060206200078286828701620005ad565b925050604084015167ffffffffffffffff811115620007a657620007a56200055a565b5b620007b48682870162000710565b9150509250925092565b620007c9816200057f565b82525050565b6000604082019050620007e66000830185620007be565b620007f56020830184620007be565b9392505050565b600082825260208201905092915050565b7f455243313936373a206e65772061646d696e20697320746865207a65726f206160008201527f6464726573730000000000000000000000000000000000000000000000000000602082015250565b60006200086b602683620007fc565b915062000878826200080d565b604082019050919050565b600060208201905081810360008301526200089e816200085c565b9050919050565b7f455243313936373a206e657720696d706c656d656e746174696f6e206973206e60008201527f6f74206120636f6e747261637400000000000000000000000000000000000000602082015250565b600062000903602d83620007fc565b91506200091082620008a5565b604082019050919050565b600060208201905081810360008301526200093681620008f4565b9050919050565b600081519050919050565b600081905092915050565b600062000960826200093d565b6200096c818562000948565b93506200097e81856020860162000699565b80840191505092915050565b600062000998828462000953565b915081905092915050565b7f416464726573733a2063616c6c20746f206e6f6e2d636f6e7472616374000000600082015250565b6000620009db601d83620007fc565b9150620009e882620009a3565b602082019050919050565b6000602082019050818103600083015262000a0e81620009cc565b9050919050565b600081519050919050565b600062000a2d8262000a15565b62000a398185620007fc565b935062000a4b81856020860162000699565b62000a5681620005ce565b840191505092915050565b6000602082019050818103600083015262000a7d818462000a20565b905092915050565b6110588062000a956000396000f3fe60806040526004361061002d5760003560e01c80636e9960c314610046578063aaf10f42146100715761003c565b3661003c5761003a61009c565b005b61004461009c565b005b34801561005257600080fd5b5061005b610318565b6040516100689190610a0a565b60405180910390f35b34801561007d57600080fd5b50610086610327565b6040516100939190610a0a565b60405180910390f35b6100a4610336565b73ffffffffffffffffffffffffffffffffffffffff163373ffffffffffffffffffffffffffffffffffffffff160361030e576060600080357fffffffff00000000000000000000000000000000000000000000000000000000169050633659cfe660e01b7bffffffffffffffffffffffffffffffffffffffffffffffffffffffff1916817bffffffffffffffffffffffffffffffffffffffffffffffffffffffff19160361015b5761015461038d565b9150610306565b634f1ef28660e01b7bffffffffffffffffffffffffffffffffffffffffffffffffffffffff1916817bffffffffffffffffffffffffffffffffffffffffffffffffffffffff1916036101b6576101af6103ec565b9150610305565b638f28397060e01b7bffffffffffffffffffffffffffffffffffffffffffffffffffffffff1916817bffffffffffffffffffffffffffffffffffffffffffffffffffffffff1916036102115761020a610439565b9150610304565b63f851a44060e01b7bffffffffffffffffffffffffffffffffffffffffffffffffffffffff1916817bffffffffffffffffffffffffffffffffffffffffffffffffffffffff19160361026c57610265610486565b9150610303565b635c60da1b60e01b7bffffffffffffffffffffffffffffffffffffffffffffffffffffffff1916817bffffffffffffffffffffffffffffffffffffffffffffffffffffffff1916036102c7576102c06104c2565b9150610302565b6040517f08c379a00000000000000000000000000000000000000000000000000000000081526004016102f990610ace565b60405180910390fd5b5b5b5b5b815160208301f35b6103166104fe565b565b6000610322610518565b905090565b6000610331610527565b905090565b60006103647fb53127684a568b3173ae13b9f8a6016e243e63b6e8ee1178d6a717850b5d610360001b610536565b60000160009054906101000a900473ffffffffffffffffffffffffffffffffffffffff16905090565b6060610397610540565b6000803660049080926103ac93929190610b02565b8101906103b99190610b85565b90506103d68160405180602001604052806000815250600061054f565b6040518060200160405280600081525091505090565b6060600080600036600490809261040593929190610b02565b8101906104129190610cf8565b915091506104228282600161054f565b604051806020016040528060008152509250505090565b6060610443610540565b60008036600490809261045893929190610b02565b8101906104659190610b85565b90506104708161057b565b6040518060200160405280600081525091505090565b6060610490610540565b600061049a610336565b9050806040516020016104ad9190610a0a565b60405160208183030381529060405291505090565b60606104cc610540565b60006104d6610527565b9050806040516020016104e99190610a0a565b60405160208183030381529060405291505090565b6105066105c7565b610516610511610527565b6105c9565b565b6000610522610336565b905090565b60006105316105ef565b905090565b6000819050919050565b6000341461054d57600080fd5b565b61055883610646565b6000825111806105655750805b15610576576105748383610695565b505b505050565b7f7e644d79422f17c01e4894b5f4f588d331ebfa28653d42ae832dc59e38c9798f6105a4610336565b826040516105b3929190610d54565b60405180910390a16105c4816106c2565b50565b565b3660008037600080366000845af43d6000803e80600081146105ea573d6000f35b3d6000fd5b600061061d7f360894a13ba1a3210667c828492db98dca3e2076cc3735a920a3ca505d382bbc60001b610536565b60000160009054906101000a900473ffffffffffffffffffffffffffffffffffffffff16905090565b61064f816107a2565b8073ffffffffffffffffffffffffffffffffffffffff167fbc7cd75a20ee27fd9adebab32041f755214dbc6bffa90cc0225b39da2e5c2d3b60405160405180910390a250565b60606106ba8383604051806060016040528060278152602001610ffc6027913961085b565b905092915050565b600073ffffffffffffffffffffffffffffffffffffffff168173ffffffffffffffffffffffffffffffffffffffff1603610731576040517f08c379a000000000000000000000000000000000000000000000000000000000815260040161072890610def565b60405180910390fd5b8061075e7fb53127684a568b3173ae13b9f8a6016e243e63b6e8ee1178d6a717850b5d610360001b610536565b60000160006101000a81548173ffffffffffffffffffffffffffffffffffffffff021916908373ffffffffffffffffffffffffffffffffffffffff16021790555050565b6107ab816108e1565b6107ea576040517f08c379a00000000000000000000000000000000000000000000000000000000081526004016107e190610e81565b60405180910390fd5b806108177f360894a13ba1a3210667c828492db98dca3e2076cc3735a920a3ca505d382bbc60001b610536565b60000160006101000a81548173ffffffffffffffffffffffffffffffffffffffff021916908373ffffffffffffffffffffffffffffffffffffffff16021790555050565b60606000808573ffffffffffffffffffffffffffffffffffffffff16856040516108859190610f12565b600060405180830381855af49150503d80600081146108c0576040519150601f19603f3d011682016040523d82523d6000602084013e6108c5565b606091505b50915091506108d686838387610904565b925050509392505050565b6000808273ffffffffffffffffffffffffffffffffffffffff163b119050919050565b6060831561096657600083510361095e5761091e856108e1565b61095d576040517f08c379a000000000000000000000000000000000000000000000000000000000815260040161095490610f75565b60405180910390fd5b5b829050610971565b6109708383610979565b5b949350505050565b60008251111561098c5781518083602001fd5b806040517f08c379a00000000000000000000000000000000000000000000000000000000081526004016109c09190610fd9565b60405180910390fd5b600073ffffffffffffffffffffffffffffffffffffffff82169050919050565b60006109f4826109c9565b9050919050565b610a04816109e9565b82525050565b6000602082019050610a1f60008301846109fb565b92915050565b600082825260208201905092915050565b7f5472616e73706172656e745570677261646561626c6550726f78793a2061646d60008201527f696e2063616e6e6f742066616c6c6261636b20746f2070726f7879207461726760208201527f6574000000000000000000000000000000000000000000000000000000000000604082015250565b6000610ab8604283610a25565b9150610ac382610a36565b606082019050919050565b60006020820190508181036000830152610ae781610aab565b9050919050565b6000604051905090565b600080fd5b600080fd5b60008085851115610b1657610b15610af8565b5b83861115610b2757610b26610afd565b5b6001850283019150848603905094509492505050565b600080fd5b600080fd5b6000610b52826109c9565b9050919050565b610b6281610b47565b8114610b6d57600080fd5b50565b600081359050610b7f81610b59565b92915050565b600060208284031215610b9b57610b9a610b3d565b5b6000610ba984828501610b70565b91505092915050565b600080fd5b600080fd5b6000601f19601f8301169050919050565b7f4e487b7100000000000000000000000000000000000000000000000000000000600052604160045260246000fd5b610c0582610bbc565b810181811067ffffffffffffffff82111715610c2457610c23610bcd565b5b80604052505050565b6000610c37610aee565b9050610c438282610bfc565b919050565b600067ffffffffffffffff821115610c6357610c62610bcd565b5b610c6c82610bbc565b9050602081019050919050565b82818337600083830152505050565b6000610c9b610c9684610c48565b610c2d565b905082815260208101848484011115610cb757610cb6610bb7565b5b610cc2848285610c79565b509392505050565b600082601f830112610cdf57610cde610bb2565b5b8135610cef848260208601610c88565b91505092915050565b60008060408385031215610d0f57610d0e610b3d565b5b6000610d1d85828601610b70565b925050602083013567ffffffffffffffff811115610d3e57610d3d610b42565b5b610d4a85828601610cca565b9150509250929050565b6000604082019050610d6960008301856109fb565b610d7660208301846109fb565b9392505050565b7f455243313936373a206e65772061646d696e20697320746865207a65726f206160008201527f6464726573730000000000000000000000000000000000000000000000000000602082015250565b6000610dd9602683610a25565b9150610de482610d7d565b604082019050919050565b60006020820190508181036000830152610e0881610dcc565b9050919050565b7f455243313936373a206e657720696d706c656d656e746174696f6e206973206e60008201527f6f74206120636f6e747261637400000000000000000000000000000000000000602082015250565b6000610e6b602d83610a25565b9150610e7682610e0f565b604082019050919050565b60006020820190508181036000830152610e9a81610e5e565b9050919050565b600081519050919050565b600081905092915050565b60005b83811015610ed5578082015181840152602081019050610eba565b60008484015250505050565b6000610eec82610ea1565b610ef68185610eac565b9350610f06818560208601610eb7565b80840191505092915050565b6000610f1e8284610ee1565b915081905092915050565b7f416464726573733a2063616c6c20746f206e6f6e2d636f6e7472616374000000600082015250565b6000610f5f601d83610a25565b9150610f6a82610f29565b602082019050919050565b60006020820190508181036000830152610f8e81610f52565b9050919050565b600081519050919050565b6000610fab82610f95565b610fb58185610a25565b9350610fc5818560208601610eb7565b610fce81610bbc565b840191505092915050565b60006020820190508181036000830152610ff38184610fa0565b90509291505056fe416464726573733a206c6f772d6c6576656c2064656c65676174652063616c6c206661696c6564a26469706673582212204b294a9758f1a7eac3b26e50e240bee5efff802138f9fedf05f759154934427564736f6c63430008130033416464726573733a206c6f772d6c6576656c2064656c65676174652063616c6c206661696c6564",
  "linkReferences": {},
  "deployedLinkReferences": {}
}