{
  "_format": "hh-sol-artifact-1",
  "contractName": "ERC20Impl",
  "sourceName": "contracts/token/bittoToken.impl.sol",
  "abi": [
    {
      "anonymous": false,
      "inputs": [
        {
          "indexed": true,
          "internalType": "address",
          "name": "owner",
          "type": "address"
        },
        {
          "indexed": true,
          "internalType": "address",
          "name": "spender",
          "type": "address"
        },
        {
          "indexed": false,
          "internalType": "uint256",
          "name": "value",
          "type": "uint256"
        }
      ],
      "name": "Approval",
      "type": "event"
    },
    {
      "anonymous": false,
      "inputs": [
        {
          "indexed": false,
          "internalType": "uint8",
          "name": "version",
          "type": "uint8"
        }
      ],
      "name": "Initialized",
      "type": "event"
    },
    {
      "anonymous": false,
      "inputs": [
        {
          "indexed": true,
          "internalType": "address",
          "name": "previousOwner",
          "type": "address"
        },
        {
          "indexed": true,
          "internalType": "address",
          "name": "newOwner",
          "type": "address"
        }
      ],
      "name": "OwnershipTransferred",
      "type": "event"
    },
    {
      "anonymous": false,
      "inputs": [
        {
          "indexed": false,
          "internalType": "address",
          "name": "account",
          "type": "address"
        }
      ],
      "name": "Paused",
      "type": "event"
    },
    {
      "anonymous": false,
      "inputs": [
        {
          "indexed": true,
          "internalType": "bytes32",
          "name": "role",
          "type": "bytes32"
        },
        {
          "indexed": true,
          "internalType": "bytes32",
          "name": "previousAdminRole",
          "type": "bytes32"
        },
        {
          "indexed": true,
          "internalType": "bytes32",
          "name": "newAdminRole",
          "type": "bytes32"
        }
      ],
      "name": "RoleAdminChanged",
      "type": "event"
    },
    {
      "anonymous": false,
      "inputs": [
        {
          "indexed": true,
          "internalType": "bytes32",
          "name": "role",
          "type": "bytes32"
        },
        {
          "indexed": true,
          "internalType": "address",
          "name": "account",
          "type": "address"
        },
        {
          "indexed": true,
          "internalType": "address",
          "name": "sender",
          "type": "address"
        }
      ],
      "name": "RoleGranted",
      "type": "event"
    },
    {
      "anonymous": false,
      "inputs": [
        {
          "indexed": true,
          "internalType": "bytes32",
          "name": "role",
          "type": "bytes32"
        },
        {
          "indexed": true,
          "internalType": "address",
          "name": "account",
          "type": "address"
        },
        {
          "indexed": true,
          "internalType": "address",
          "name": "sender",
          "type": "address"
        }
      ],
      "name": "RoleRevoked",
      "type": "event"
    },
    {
      "anonymous": false,
      "inputs": [
        {
          "indexed": true,
          "internalType": "address",
          "name": "from",
          "type": "address"
        },
        {
          "indexed": true,
          "internalType": "address",
          "name": "to",
          "type": "address"
        },
        {
          "indexed": false,
          "internalType": "uint256",
          "name": "value",
          "type": "uint256"
        }
      ],
      "name": "Transfer",
      "type": "event"
    },
    {
      "anonymous": false,
      "inputs": [
        {
          "indexed": false,
          "internalType": "address",
          "name": "account",
          "type": "address"
        }
      ],
      "name": "Unpaused",
      "type": "event"
    },
    {
      "inputs": [],
      "name": "DEFAULT_ADMIN_ROLE",
      "outputs": [
        {
          "internalType": "bytes32",
          "name": "",
          "type": "bytes32"
        }
      ],
      "stateMutability": "view",
      "type": "function"
    },
    {
      "inputs": [],
      "name": "MINTER_ROLE",
      "outputs": [
        {
          "internalType": "bytes32",
          "name": "",
          "type": "bytes32"
        }
      ],
      "stateMutability": "view",
      "type": "function"
    },
    {
      "inputs": [],
      "name": "admin",
      "outputs": [
        {
          "internalType": "address",
          "name": "",
          "type": "address"
        }
      ],
      "stateMutability": "view",
      "type": "function"
    },
    {
      "inputs": [
        {
          "internalType": "address",
          "name": "owner",
          "type": "address"
        },
        {
          "internalType": "address",
          "name": "spender",
          "type": "address"
        }
      ],
      "name": "allowance",
      "outputs": [
        {
          "internalType": "uint256",
          "name": "",
          "type": "uint256"
        }
      ],
      "stateMutability": "view",
      "type": "function"
    },
    {
      "inputs": [
        {
          "internalType": "address",
          "name": "spender",
          "type": "address"
        },
        {
          "internalType": "uint256",
          "name": "amount",
          "type": "uint256"
        }
      ],
      "name": "approve",
      "outputs": [
        {
          "internalType": "bool",
          "name": "",
          "type": "bool"
        }
      ],
      "stateMutability": "nonpayable",
      "type": "function"
    },
    {
      "inputs": [
        {
          "internalType": "address",
          "name": "account",
          "type": "address"
        }
      ],
      "name": "balanceOf",
      "outputs": [
        {
          "internalType": "uint256",
          "name": "",
          "type": "uint256"
        }
      ],
      "stateMutability": "view",
      "type": "function"
    },
    {
      "inputs": [],
      "name": "decimals",
      "outputs": [
        {
          "internalType": "uint8",
          "name": "",
          "type": "uint8"
        }
      ],
      "stateMutability": "view",
      "type": "function"
    },
    {
      "inputs": [
        {
          "internalType": "address",
          "name": "spender",
          "type": "address"
        },
        {
          "internalType": "uint256",
          "name": "subtractedValue",
          "type": "uint256"
        }
      ],
      "name": "decreaseAllowance",
      "outputs": [
        {
          "internalType": "bool",
          "name": "",
          "type": "bool"
        }
      ],
      "stateMutability": "nonpayable",
      "type": "function"
    },
    {
      "inputs": [
        {
          "internalType": "bytes32",
          "name": "role",
          "type": "bytes32"
        }
      ],
      "name": "getRoleAdmin",
      "outputs": [
        {
          "internalType": "bytes32",
          "name": "",
          "type": "bytes32"
        }
      ],
      "stateMutability": "view",
      "type": "function"
    },
    {
      "inputs": [
        {
          "internalType": "bytes32",
          "name": "role",
          "type": "bytes32"
        },
        {
          "internalType": "address",
          "name": "account",
          "type": "address"
        }
      ],
      "name": "grantRole",
      "outputs": [],
      "stateMutability": "nonpayable",
      "type": "function"
    },
    {
      "inputs": [
        {
          "internalType": "bytes32",
          "name": "role",
          "type": "bytes32"
        },
        {
          "internalType": "address",
          "name": "account",
          "type": "address"
        }
      ],
      "name": "hasRole",
      "outputs": [
        {
          "internalType": "bool",
          "name": "",
          "type": "bool"
        }
      ],
      "stateMutability": "view",
      "type": "function"
    },
    {
      "inputs": [],
      "name": "implementation",
      "outputs": [
        {
          "internalType": "address",
          "name": "",
          "type": "address"
        }
      ],
      "stateMutability": "view",
      "type": "function"
    },
    {
      "inputs": [
        {
          "internalType": "address",
          "name": "spender",
          "type": "address"
        },
        {
          "internalType": "uint256",
          "name": "addedValue",
          "type": "uint256"
        }
      ],
      "name": "increaseAllowance",
      "outputs": [
        {
          "internalType": "bool",
          "name": "",
          "type": "bool"
        }
      ],
      "stateMutability": "nonpayable",
      "type": "function"
    },
    {
      "inputs": [
        {
          "internalType": "string",
          "name": "name",
          "type": "string"
        },
        {
          "internalType": "string",
          "name": "symbol",
          "type": "string"
        },
        {
          "internalType": "uint256",
          "name": "initialSupply",
          "type": "uint256"
        },
        {
          "internalType": "address",
          "name": "_roleAdmin",
          "type": "address"
        }
      ],
      "name": "initialize",
      "outputs": [],
      "stateMutability": "nonpayable",
      "type": "function"
    },
    {
      "inputs": [
        {
          "internalType": "address",
          "name": "to",
          "type": "address"
        },
        {
          "internalType": "uint256",
          "name": "amount",
          "type": "uint256"
        }
      ],
      "name": "mint",
      "outputs": [],
      "stateMutability": "nonpayable",
      "type": "function"
    },
    {
      "inputs": [],
      "name": "name",
      "outputs": [
        {
          "internalType": "string",
          "name": "",
          "type": "string"
        }
      ],
      "stateMutability": "view",
      "type": "function"
    },
    {
      "inputs": [],
      "name": "owner",
      "outputs": [
        {
          "internalType": "address",
          "name": "",
          "type": "address"
        }
      ],
      "stateMutability": "view",
      "type": "function"
    },
    {
      "inputs": [],
      "name": "pause",
      "outputs": [],
      "stateMutability": "nonpayable",
      "type": "function"
    },
    {
      "inputs": [],
      "name": "paused",
      "outputs": [
        {
          "internalType": "bool",
          "name": "",
          "type": "bool"
        }
      ],
      "stateMutability": "view",
      "type": "function"
    },
    {
      "inputs": [],
      "name": "renounceOwnership",
      "outputs": [],
      "stateMutability": "nonpayable",
      "type": "function"
    },
    {
      "inputs": [
        {
          "internalType": "bytes32",
          "name": "role",
          "type": "bytes32"
        },
        {
          "internalType": "address",
          "name": "account",
          "type": "address"
        }
      ],
      "name": "renounceRole",
      "outputs": [],
      "stateMutability": "nonpayable",
      "type": "function"
    },
    {
      "inputs": [
        {
          "internalType": "bytes32",
          "name": "role",
          "type": "bytes32"
        },
        {
          "internalType": "address",
          "name": "account",
          "type": "address"
        }
      ],
      "name": "revokeRole",
      "outputs": [],
      "stateMutability": "nonpayable",
      "type": "function"
    },
    {
      "inputs": [
        {
          "internalType": "bytes4",
          "name": "interfaceId",
          "type": "bytes4"
        }
      ],
      "name": "supportsInterface",
      "outputs": [
        {
          "internalType": "bool",
          "name": "",
          "type": "bool"
        }
      ],
      "stateMutability": "view",
      "type": "function"
    },
    {
      "inputs": [],
      "name": "symbol",
      "outputs": [
        {
          "internalType": "string",
          "name": "",
          "type": "string"
        }
      ],
      "stateMutability": "view",
      "type": "function"
    },
    {
      "inputs": [],
      "name": "totalSupply",
      "outputs": [
        {
          "internalType": "uint256",
          "name": "",
          "type": "uint256"
        }
      ],
      "stateMutability": "view",
      "type": "function"
    },
    {
      "inputs": [
        {
          "internalType": "address",
          "name": "to",
          "type": "address"
        },
        {
          "internalType": "uint256",
          "name": "amount",
          "type": "uint256"
        }
      ],
      "name": "transfer",
      "outputs": [
        {
          "internalType": "bool",
          "name": "",
          "type": "bool"
        }
      ],
      "stateMutability": "nonpayable",
      "type": "function"
    },
    {
      "inputs": [
        {
          "internalType": "address",
          "name": "from",
          "type": "address"
        },
        {
          "internalType": "address",
          "name": "to",
          "type": "address"
        },
        {
          "internalType": "uint256",
          "name": "amount",
          "type": "uint256"
        }
      ],
      "name": "transferFrom",
      "outputs": [
        {
          "internalType": "bool",
          "name": "",
          "type": "bool"
        }
      ],
      "stateMutability": "nonpayable",
      "type": "function"
    },
    {
      "inputs": [
        {
          "internalType": "address",
          "name": "newOwner",
          "type": "address"
        }
      ],
      "name": "transferOwnership",
      "outputs": [],
      "stateMutability": "nonpayable",
      "type": "function"
    },
    {
      "inputs": [],
      "name": "unpause",
      "outputs": [],
      "stateMutability": "nonpayable",
      "type": "function"
    }
  ],
  "bytecode": "0x608060405234801561001057600080fd5b50613388806100206000396000f3fe608060405234801561001057600080fd5b50600436106101cf5760003560e01c806370a0823111610104578063a457c2d7116100a2578063d547741f11610071578063d547741f14610520578063dd62ed3e1461053c578063f2fde38b1461056c578063f851a44014610588576101cf565b8063a457c2d714610486578063a9059cbb146104b6578063bd3a13f6146104e6578063d539139314610502576101cf565b80638da5cb5b116100de5780638da5cb5b146103fc57806391d148541461041a57806395d89b411461044a578063a217fddf14610468576101cf565b806370a08231146103b8578063715018a6146103e85780638456cb59146103f2576101cf565b8063313ce567116101715780633f4ba83a1161014b5780633f4ba83a1461035657806340c10f19146103605780635c60da1b1461037c5780635c975abb1461039a576101cf565b8063313ce567146102ec57806336568abe1461030a5780633950935114610326576101cf565b806318160ddd116101ad57806318160ddd1461025257806323b872dd14610270578063248a9ca3146102a05780632f2ff15d146102d0576101cf565b806301ffc9a7146101d457806306fdde0314610204578063095ea7b314610222575b600080fd5b6101ee60048036038101906101e99190612002565b6105a6565b6040516101fb919061204a565b60405180910390f35b61020c610620565b60405161021991906120f5565b60405180910390f35b61023c600480360381019061023791906121ab565b6106b2565b604051610249919061204a565b60405180910390f35b61025a6106d5565b60405161026791906121fa565b60405180910390f35b61028a60048036038101906102859190612215565b6106df565b604051610297919061204a565b60405180910390f35b6102ba60048036038101906102b5919061229e565b61070e565b6040516102c791906122da565b60405180910390f35b6102ea60048036038101906102e591906122f5565b61072f565b005b6102f4610750565b6040516103019190612351565b60405180910390f35b610324600480360381019061031f91906122f5565b610759565b005b610340600480360381019061033b91906121ab565b6107dc565b60405161034d919061204a565b60405180910390f35b61035e610813565b005b61037a600480360381019061037591906121ab565b610825565b005b61038461085e565b604051610391919061237b565b60405180910390f35b6103a2610885565b6040516103af919061204a565b60405180910390f35b6103d260048036038101906103cd9190612396565b61089c565b6040516103df91906121fa565b60405180910390f35b6103f06108e5565b005b6103fa6108f9565b005b61040461090b565b604051610411919061237b565b60405180910390f35b610434600480360381019061042f91906122f5565b610935565b604051610441919061204a565b60405180910390f35b6104526109a1565b60405161045f91906120f5565b60405180910390f35b610470610a33565b60405161047d91906122da565b60405180910390f35b6104a0600480360381019061049b91906121ab565b610a3a565b6040516104ad919061204a565b60405180910390f35b6104d060048036038101906104cb91906121ab565b610ab1565b6040516104dd919061204a565b60405180910390f35b61050060048036038101906104fb91906124f8565b610ad4565b005b61050a610c80565b60405161051791906122da565b60405180910390f35b61053a600480360381019061053591906122f5565b610ca4565b005b61055660048036038101906105519190612597565b610cc5565b60405161056391906121fa565b60405180910390f35b61058660048036038101906105819190612396565b610d4c565b005b610590610dcf565b60405161059d919061237b565b60405180910390f35b60007f7965db0b000000000000000000000000000000000000000000000000000000007bffffffffffffffffffffffffffffffffffffffffffffffffffffffff1916827bffffffffffffffffffffffffffffffffffffffffffffffffffffffff19161480610619575061061882610df6565b5b9050919050565b60606036805461062f90612606565b80601f016020809104026020016040519081016040528092919081815260200182805461065b90612606565b80156106a85780601f1061067d576101008083540402835291602001916106a8565b820191906000526020600020905b81548152906001019060200180831161068b57829003601f168201915b5050505050905090565b6000806106bd610e60565b90506106ca818585610e68565b600191505092915050565b6000603554905090565b6000806106ea610e60565b90506106f7858285611031565b6107028585856110bd565b60019150509392505050565b600061012d6000838152602001908152602001600020600101549050919050565b6107388261070e565b61074181611336565b61074b838361134a565b505050565b60006012905090565b610761610e60565b73ffffffffffffffffffffffffffffffffffffffff168173ffffffffffffffffffffffffffffffffffffffff16146107ce576040517f08c379a00000000000000000000000000000000000000000000000000000000081526004016107c5906126a9565b60405180910390fd5b6107d8828261142c565b5050565b6000806107e7610e60565b90506108088185856107f98589610cc5565b61080391906126f8565b610e68565b600191505092915050565b61081b61150f565b61082361158d565b565b7f9f2df0fed2c77648de5860a4cc508cd0818c85b8b8a1ab4ceeef8d981c8956a661084f81611336565b61085983836115f0565b505050565b61016060009054906101000a900473ffffffffffffffffffffffffffffffffffffffff1681565b6000609760009054906101000a900460ff16905090565b6000603360008373ffffffffffffffffffffffffffffffffffffffff1673ffffffffffffffffffffffffffffffffffffffff168152602001908152602001600020549050919050565b6108ed61150f565b6108f76000611747565b565b61090161150f565b61090961180d565b565b600060c960009054906101000a900473ffffffffffffffffffffffffffffffffffffffff16905090565b600061012d600084815260200190815260200160002060000160008373ffffffffffffffffffffffffffffffffffffffff1673ffffffffffffffffffffffffffffffffffffffff16815260200190815260200160002060009054906101000a900460ff16905092915050565b6060603780546109b090612606565b80601f01602080910402602001604051908101604052809291908181526020018280546109dc90612606565b8015610a295780601f106109fe57610100808354040283529160200191610a29565b820191906000526020600020905b815481529060010190602001808311610a0c57829003601f168201915b5050505050905090565b6000801b81565b600080610a45610e60565b90506000610a538286610cc5565b905083811015610a98576040517f08c379a0000000000000000000000000000000000000000000000000000000008152600401610a8f9061279e565b60405180910390fd5b610aa58286868403610e68565b60019250505092915050565b600080610abc610e60565b9050610ac98185856110bd565b600191505092915050565b60008060019054906101000a900460ff16159050808015610b055750600160008054906101000a900460ff1660ff16105b80610b325750610b1430611870565b158015610b315750600160008054906101000a900460ff1660ff16145b5b610b71576040517f08c379a0000000000000000000000000000000000000000000000000000000008152600401610b6890612830565b60405180910390fd5b60016000806101000a81548160ff021916908360ff1602179055508015610bae576001600060016101000a81548160ff0219169083151502179055505b610bb88585611893565b610bc06118f0565b610bc8611949565b610bd06119a2565b610bd86119fb565b610be9610be3610e60565b846115f0565b610bf66000801b83611a4c565b610c207f9f2df0fed2c77648de5860a4cc508cd0818c85b8b8a1ab4ceeef8d981c8956a683611a4c565b8015610c795760008060016101000a81548160ff0219169083151502179055507f7f26b83ff96e1f2b6a682f133852f6798a09c465da95921460cefb38474024986001604051610c709190612895565b60405180910390a15b5050505050565b7f9f2df0fed2c77648de5860a4cc508cd0818c85b8b8a1ab4ceeef8d981c8956a681565b610cad8261070e565b610cb681611336565b610cc0838361142c565b505050565b6000603460008473ffffffffffffffffffffffffffffffffffffffff1673ffffffffffffffffffffffffffffffffffffffff16815260200190815260200160002060008373ffffffffffffffffffffffffffffffffffffffff1673ffffffffffffffffffffffffffffffffffffffff16815260200190815260200160002054905092915050565b610d5461150f565b600073ffffffffffffffffffffffffffffffffffffffff168173ffffffffffffffffffffffffffffffffffffffff1603610dc3576040517f08c379a0000000000000000000000000000000000000000000000000000000008152600401610dba90612922565b60405180910390fd5b610dcc81611747565b50565b61015f60009054906101000a900473ffffffffffffffffffffffffffffffffffffffff1681565b60007f01ffc9a7000000000000000000000000000000000000000000000000000000007bffffffffffffffffffffffffffffffffffffffffffffffffffffffff1916827bffffffffffffffffffffffffffffffffffffffffffffffffffffffff1916149050919050565b600033905090565b600073ffffffffffffffffffffffffffffffffffffffff168373ffffffffffffffffffffffffffffffffffffffff1603610ed7576040517f08c379a0000000000000000000000000000000000000000000000000000000008152600401610ece906129b4565b60405180910390fd5b600073ffffffffffffffffffffffffffffffffffffffff168273ffffffffffffffffffffffffffffffffffffffff1603610f46576040517f08c379a0000000000000000000000000000000000000000000000000000000008152600401610f3d90612a46565b60405180910390fd5b80603460008573ffffffffffffffffffffffffffffffffffffffff1673ffffffffffffffffffffffffffffffffffffffff16815260200190815260200160002060008473ffffffffffffffffffffffffffffffffffffffff1673ffffffffffffffffffffffffffffffffffffffff168152602001908152602001600020819055508173ffffffffffffffffffffffffffffffffffffffff168373ffffffffffffffffffffffffffffffffffffffff167f8c5be1e5ebec7d5bd14f71427d1e84f3dd0314c0f7b2291e5b200ac8c7c3b9258360405161102491906121fa565b60405180910390a3505050565b600061103d8484610cc5565b90507fffffffffffffffffffffffffffffffffffffffffffffffffffffffffffffffff81146110b757818110156110a9576040517f08c379a00000000000000000000000000000000000000000000000000000000081526004016110a090612ab2565b60405180910390fd5b6110b68484848403610e68565b5b50505050565b600073ffffffffffffffffffffffffffffffffffffffff168373ffffffffffffffffffffffffffffffffffffffff160361112c576040517f08c379a000000000000000000000000000000000000000000000000000000000815260040161112390612b44565b60405180910390fd5b600073ffffffffffffffffffffffffffffffffffffffff168273ffffffffffffffffffffffffffffffffffffffff160361119b576040517f08c379a000000000000000000000000000000000000000000000000000000000815260040161119290612bd6565b60405180910390fd5b6111a6838383611a5a565b6000603360008573ffffffffffffffffffffffffffffffffffffffff1673ffffffffffffffffffffffffffffffffffffffff1681526020019081526020016000205490508181101561122d576040517f08c379a000000000000000000000000000000000000000000000000000000000815260040161122490612c68565b60405180910390fd5b818103603360008673ffffffffffffffffffffffffffffffffffffffff1673ffffffffffffffffffffffffffffffffffffffff1681526020019081526020016000208190555081603360008573ffffffffffffffffffffffffffffffffffffffff1673ffffffffffffffffffffffffffffffffffffffff168152602001908152602001600020600082825401925050819055508273ffffffffffffffffffffffffffffffffffffffff168473ffffffffffffffffffffffffffffffffffffffff167fddf252ad1be2c89b69c2b068fc378daa952ba7f163c4a11628f55a4df523b3ef8460405161131d91906121fa565b60405180910390a3611330848484611a72565b50505050565b61134781611342610e60565b611a77565b50565b6113548282610935565b61142857600161012d600084815260200190815260200160002060000160008373ffffffffffffffffffffffffffffffffffffffff1673ffffffffffffffffffffffffffffffffffffffff16815260200190815260200160002060006101000a81548160ff0219169083151502179055506113cd610e60565b73ffffffffffffffffffffffffffffffffffffffff168173ffffffffffffffffffffffffffffffffffffffff16837f2f8788117e7eff1d82e926ec794901d17c78024a50270940304540a733656f0d60405160405180910390a45b5050565b6114368282610935565b1561150b57600061012d600084815260200190815260200160002060000160008373ffffffffffffffffffffffffffffffffffffffff1673ffffffffffffffffffffffffffffffffffffffff16815260200190815260200160002060006101000a81548160ff0219169083151502179055506114b0610e60565b73ffffffffffffffffffffffffffffffffffffffff168173ffffffffffffffffffffffffffffffffffffffff16837ff6391f5c32d9c69d2a47ea670b442974b53935d1edc7fd64eb21e047a839171b60405160405180910390a45b5050565b611517610e60565b73ffffffffffffffffffffffffffffffffffffffff1661153561090b565b73ffffffffffffffffffffffffffffffffffffffff161461158b576040517f08c379a000000000000000000000000000000000000000000000000000000000815260040161158290612cd4565b60405180910390fd5b565b611595611afc565b6000609760006101000a81548160ff0219169083151502179055507f5db9ee0a495bf2e6ff9c91a7834c1ba4fdd244a5e8aa4e537bd38aeae4b073aa6115d9610e60565b6040516115e6919061237b565b60405180910390a1565b600073ffffffffffffffffffffffffffffffffffffffff168273ffffffffffffffffffffffffffffffffffffffff160361165f576040517f08c379a000000000000000000000000000000000000000000000000000000000815260040161165690612d40565b60405180910390fd5b61166b60008383611a5a565b806035600082825461167d91906126f8565b9250508190555080603360008473ffffffffffffffffffffffffffffffffffffffff1673ffffffffffffffffffffffffffffffffffffffff168152602001908152602001600020600082825401925050819055508173ffffffffffffffffffffffffffffffffffffffff16600073ffffffffffffffffffffffffffffffffffffffff167fddf252ad1be2c89b69c2b068fc378daa952ba7f163c4a11628f55a4df523b3ef8360405161172f91906121fa565b60405180910390a361174360008383611a72565b5050565b600060c960009054906101000a900473ffffffffffffffffffffffffffffffffffffffff1690508160c960006101000a81548173ffffffffffffffffffffffffffffffffffffffff021916908373ffffffffffffffffffffffffffffffffffffffff1602179055508173ffffffffffffffffffffffffffffffffffffffff168173ffffffffffffffffffffffffffffffffffffffff167f8be0079c531659141344cd1fd0a4f28419497f9722a3daafe3b4186f6b6457e060405160405180910390a35050565b611815611b45565b6001609760006101000a81548160ff0219169083151502179055507f62e78cea01bee320cd4e420270b5ea74000d11b0c9f74754ebdbfc544b05a258611859610e60565b604051611866919061237b565b60405180910390a1565b6000808273ffffffffffffffffffffffffffffffffffffffff163b119050919050565b600060019054906101000a900460ff166118e2576040517f08c379a00000000000000000000000000000000000000000000000000000000081526004016118d990612dd2565b60405180910390fd5b6118ec8282611b8f565b5050565b600060019054906101000a900460ff1661193f576040517f08c379a000000000000000000000000000000000000000000000000000000000815260040161193690612dd2565b60405180910390fd5b611947611c02565b565b600060019054906101000a900460ff16611998576040517f08c379a000000000000000000000000000000000000000000000000000000000815260040161198f90612dd2565b60405180910390fd5b6119a0611c5b565b565b600060019054906101000a900460ff166119f1576040517f08c379a00000000000000000000000000000000000000000000000000000000081526004016119e890612dd2565b60405180910390fd5b6119f9611cc7565b565b600060019054906101000a900460ff16611a4a576040517f08c379a0000000000000000000000000000000000000000000000000000000008152600401611a4190612dd2565b60405180910390fd5b565b611a56828261134a565b5050565b611a62611b45565b611a6d838383611d28565b505050565b505050565b611a818282610935565b611af857611a8e81611d2d565b611a9c8360001c6020611d5a565b604051602001611aad929190612ec6565b6040516020818303038152906040526040517f08c379a0000000000000000000000000000000000000000000000000000000008152600401611aef91906120f5565b60405180910390fd5b5050565b611b04610885565b611b43576040517f08c379a0000000000000000000000000000000000000000000000000000000008152600401611b3a90612f4c565b60405180910390fd5b565b611b4d610885565b15611b8d576040517f08c379a0000000000000000000000000000000000000000000000000000000008152600401611b8490612fb8565b60405180910390fd5b565b600060019054906101000a900460ff16611bde576040517f08c379a0000000000000000000000000000000000000000000000000000000008152600401611bd590612dd2565b60405180910390fd5b8160369081611bed919061317a565b508060379081611bfd919061317a565b505050565b600060019054906101000a900460ff16611c51576040517f08c379a0000000000000000000000000000000000000000000000000000000008152600401611c4890612dd2565b60405180910390fd5b6001606581905550565b600060019054906101000a900460ff16611caa576040517f08c379a0000000000000000000000000000000000000000000000000000000008152600401611ca190612dd2565b60405180910390fd5b6000609760006101000a81548160ff021916908315150217905550565b600060019054906101000a900460ff16611d16576040517f08c379a0000000000000000000000000000000000000000000000000000000008152600401611d0d90612dd2565b60405180910390fd5b611d26611d21610e60565b611747565b565b505050565b6060611d538273ffffffffffffffffffffffffffffffffffffffff16601460ff16611d5a565b9050919050565b606060006002836002611d6d919061324c565b611d7791906126f8565b67ffffffffffffffff811115611d9057611d8f6123cd565b5b6040519080825280601f01601f191660200182016040528015611dc25781602001600182028036833780820191505090505b5090507f300000000000000000000000000000000000000000000000000000000000000081600081518110611dfa57611df961328e565b5b60200101907effffffffffffffffffffffffffffffffffffffffffffffffffffffffffffff1916908160001a9053507f780000000000000000000000000000000000000000000000000000000000000081600181518110611e5e57611e5d61328e565b5b60200101907effffffffffffffffffffffffffffffffffffffffffffffffffffffffffffff1916908160001a90535060006001846002611e9e919061324c565b611ea891906126f8565b90505b6001811115611f48577f3031323334353637383961626364656600000000000000000000000000000000600f861660108110611eea57611ee961328e565b5b1a60f81b828281518110611f0157611f0061328e565b5b60200101907effffffffffffffffffffffffffffffffffffffffffffffffffffffffffffff1916908160001a905350600485901c945080611f41906132bd565b9050611eab565b5060008414611f8c576040517f08c379a0000000000000000000000000000000000000000000000000000000008152600401611f8390613332565b60405180910390fd5b8091505092915050565b6000604051905090565b600080fd5b600080fd5b60007fffffffff0000000000000000000000000000000000000000000000000000000082169050919050565b611fdf81611faa565b8114611fea57600080fd5b50565b600081359050611ffc81611fd6565b92915050565b60006020828403121561201857612017611fa0565b5b600061202684828501611fed565b91505092915050565b60008115159050919050565b6120448161202f565b82525050565b600060208201905061205f600083018461203b565b92915050565b600081519050919050565b600082825260208201905092915050565b60005b8381101561209f578082015181840152602081019050612084565b60008484015250505050565b6000601f19601f8301169050919050565b60006120c782612065565b6120d18185612070565b93506120e1818560208601612081565b6120ea816120ab565b840191505092915050565b6000602082019050818103600083015261210f81846120bc565b905092915050565b600073ffffffffffffffffffffffffffffffffffffffff82169050919050565b600061214282612117565b9050919050565b61215281612137565b811461215d57600080fd5b50565b60008135905061216f81612149565b92915050565b6000819050919050565b61218881612175565b811461219357600080fd5b50565b6000813590506121a58161217f565b92915050565b600080604083850312156121c2576121c1611fa0565b5b60006121d085828601612160565b92505060206121e185828601612196565b9150509250929050565b6121f481612175565b82525050565b600060208201905061220f60008301846121eb565b92915050565b60008060006060848603121561222e5761222d611fa0565b5b600061223c86828701612160565b935050602061224d86828701612160565b925050604061225e86828701612196565b9150509250925092565b6000819050919050565b61227b81612268565b811461228657600080fd5b50565b60008135905061229881612272565b92915050565b6000602082840312156122b4576122b3611fa0565b5b60006122c284828501612289565b91505092915050565b6122d481612268565b82525050565b60006020820190506122ef60008301846122cb565b92915050565b6000806040838503121561230c5761230b611fa0565b5b600061231a85828601612289565b925050602061232b85828601612160565b9150509250929050565b600060ff82169050919050565b61234b81612335565b82525050565b60006020820190506123666000830184612342565b92915050565b61237581612137565b82525050565b6000602082019050612390600083018461236c565b92915050565b6000602082840312156123ac576123ab611fa0565b5b60006123ba84828501612160565b91505092915050565b600080fd5b600080fd5b7f4e487b7100000000000000000000000000000000000000000000000000000000600052604160045260246000fd5b612405826120ab565b810181811067ffffffffffffffff82111715612424576124236123cd565b5b80604052505050565b6000612437611f96565b905061244382826123fc565b919050565b600067ffffffffffffffff821115612463576124626123cd565b5b61246c826120ab565b9050602081019050919050565b82818337600083830152505050565b600061249b61249684612448565b61242d565b9050828152602081018484840111156124b7576124b66123c8565b5b6124c2848285612479565b509392505050565b600082601f8301126124df576124de6123c3565b5b81356124ef848260208601612488565b91505092915050565b6000806000806080858703121561251257612511611fa0565b5b600085013567ffffffffffffffff8111156125305761252f611fa5565b5b61253c878288016124ca565b945050602085013567ffffffffffffffff81111561255d5761255c611fa5565b5b612569878288016124ca565b935050604061257a87828801612196565b925050606061258b87828801612160565b91505092959194509250565b600080604083850312156125ae576125ad611fa0565b5b60006125bc85828601612160565b92505060206125cd85828601612160565b9150509250929050565b7f4e487b7100000000000000000000000000000000000000000000000000000000600052602260045260246000fd5b6000600282049050600182168061261e57607f821691505b602082108103612631576126306125d7565b5b50919050565b7f416363657373436f6e74726f6c3a2063616e206f6e6c792072656e6f756e636560008201527f20726f6c657320666f722073656c660000000000000000000000000000000000602082015250565b6000612693602f83612070565b915061269e82612637565b604082019050919050565b600060208201905081810360008301526126c281612686565b9050919050565b7f4e487b7100000000000000000000000000000000000000000000000000000000600052601160045260246000fd5b600061270382612175565b915061270e83612175565b9250828201905080821115612726576127256126c9565b5b92915050565b7f45524332303a2064656372656173656420616c6c6f77616e63652062656c6f7760008201527f207a65726f000000000000000000000000000000000000000000000000000000602082015250565b6000612788602583612070565b91506127938261272c565b604082019050919050565b600060208201905081810360008301526127b78161277b565b9050919050565b7f496e697469616c697a61626c653a20636f6e747261637420697320616c72656160008201527f647920696e697469616c697a6564000000000000000000000000000000000000602082015250565b600061281a602e83612070565b9150612825826127be565b604082019050919050565b600060208201905081810360008301526128498161280d565b9050919050565b6000819050919050565b6000819050919050565b600061287f61287a61287584612850565b61285a565b612335565b9050919050565b61288f81612864565b82525050565b60006020820190506128aa6000830184612886565b92915050565b7f4f776e61626c653a206e6577206f776e657220697320746865207a65726f206160008201527f6464726573730000000000000000000000000000000000000000000000000000602082015250565b600061290c602683612070565b9150612917826128b0565b604082019050919050565b6000602082019050818103600083015261293b816128ff565b9050919050565b7f45524332303a20617070726f76652066726f6d20746865207a65726f2061646460008201527f7265737300000000000000000000000000000000000000000000000000000000602082015250565b600061299e602483612070565b91506129a982612942565b604082019050919050565b600060208201905081810360008301526129cd81612991565b9050919050565b7f45524332303a20617070726f766520746f20746865207a65726f20616464726560008201527f7373000000000000000000000000000000000000000000000000000000000000602082015250565b6000612a30602283612070565b9150612a3b826129d4565b604082019050919050565b60006020820190508181036000830152612a5f81612a23565b9050919050565b7f45524332303a20696e73756666696369656e7420616c6c6f77616e6365000000600082015250565b6000612a9c601d83612070565b9150612aa782612a66565b602082019050919050565b60006020820190508181036000830152612acb81612a8f565b9050919050565b7f45524332303a207472616e736665722066726f6d20746865207a65726f20616460008201527f6472657373000000000000000000000000000000000000000000000000000000602082015250565b6000612b2e602583612070565b9150612b3982612ad2565b604082019050919050565b60006020820190508181036000830152612b5d81612b21565b9050919050565b7f45524332303a207472616e7366657220746f20746865207a65726f206164647260008201527f6573730000000000000000000000000000000000000000000000000000000000602082015250565b6000612bc0602383612070565b9150612bcb82612b64565b604082019050919050565b60006020820190508181036000830152612bef81612bb3565b9050919050565b7f45524332303a207472616e7366657220616d6f756e742065786365656473206260008201527f616c616e63650000000000000000000000000000000000000000000000000000602082015250565b6000612c52602683612070565b9150612c5d82612bf6565b604082019050919050565b60006020820190508181036000830152612c8181612c45565b9050919050565b7f4f776e61626c653a2063616c6c6572206973206e6f7420746865206f776e6572600082015250565b6000612cbe602083612070565b9150612cc982612c88565b602082019050919050565b60006020820190508181036000830152612ced81612cb1565b9050919050565b7f45524332303a206d696e7420746f20746865207a65726f206164647265737300600082015250565b6000612d2a601f83612070565b9150612d3582612cf4565b602082019050919050565b60006020820190508181036000830152612d5981612d1d565b9050919050565b7f496e697469616c697a61626c653a20636f6e7472616374206973206e6f74206960008201527f6e697469616c697a696e67000000000000000000000000000000000000000000602082015250565b6000612dbc602b83612070565b9150612dc782612d60565b604082019050919050565b60006020820190508181036000830152612deb81612daf565b9050919050565b600081905092915050565b7f416363657373436f6e74726f6c3a206163636f756e7420000000000000000000600082015250565b6000612e33601783612df2565b9150612e3e82612dfd565b601782019050919050565b6000612e5482612065565b612e5e8185612df2565b9350612e6e818560208601612081565b80840191505092915050565b7f206973206d697373696e6720726f6c6520000000000000000000000000000000600082015250565b6000612eb0601183612df2565b9150612ebb82612e7a565b601182019050919050565b6000612ed182612e26565b9150612edd8285612e49565b9150612ee882612ea3565b9150612ef48284612e49565b91508190509392505050565b7f5061757361626c653a206e6f7420706175736564000000000000000000000000600082015250565b6000612f36601483612070565b9150612f4182612f00565b602082019050919050565b60006020820190508181036000830152612f6581612f29565b9050919050565b7f5061757361626c653a2070617573656400000000000000000000000000000000600082015250565b6000612fa2601083612070565b9150612fad82612f6c565b602082019050919050565b60006020820190508181036000830152612fd181612f95565b9050919050565b60008190508160005260206000209050919050565b60006020601f8301049050919050565b600082821b905092915050565b60006008830261303a7fffffffffffffffffffffffffffffffffffffffffffffffffffffffffffffffff82612ffd565b6130448683612ffd565b95508019841693508086168417925050509392505050565b600061307761307261306d84612175565b61285a565b612175565b9050919050565b6000819050919050565b6130918361305c565b6130a561309d8261307e565b84845461300a565b825550505050565b600090565b6130ba6130ad565b6130c5818484613088565b505050565b5b818110156130e9576130de6000826130b2565b6001810190506130cb565b5050565b601f82111561312e576130ff81612fd8565b61310884612fed565b81016020851015613117578190505b61312b61312385612fed565b8301826130ca565b50505b505050565b600082821c905092915050565b600061315160001984600802613133565b1980831691505092915050565b600061316a8383613140565b9150826002028217905092915050565b61318382612065565b67ffffffffffffffff81111561319c5761319b6123cd565b5b6131a68254612606565b6131b18282856130ed565b600060209050601f8311600181146131e457600084156131d2578287015190505b6131dc858261315e565b865550613244565b601f1984166131f286612fd8565b60005b8281101561321a578489015182556001820191506020850194506020810190506131f5565b868310156132375784890151613233601f891682613140565b8355505b6001600288020188555050505b505050505050565b600061325782612175565b915061326283612175565b925082820261327081612175565b91508282048414831517613287576132866126c9565b5b5092915050565b7f4e487b7100000000000000000000000000000000000000000000000000000000600052603260045260246000fd5b60006132c882612175565b9150600082036132db576132da6126c9565b5b600182039050919050565b7f537472696e67733a20686578206c656e67746820696e73756666696369656e74600082015250565b600061331c602083612070565b9150613327826132e6565b602082019050919050565b6000602082019050818103600083015261334b8161330f565b905091905056fea2646970667358221220024e32e2a1f84fcd48ed69077b6ee397843d2bc394469ad4fa4c18a6dbc22c0264736f6c63430008130033",
  "linkReferences": {},
  "deployedLinkReferences": {}
}