{
  "_format": "hh-sol-artifact-1",
  "contractName": "ERC20ImplV2",
  "sourceName": "contracts/token/bittoTokenV2.sol",
  "abi": [
    {
      "anonymous": false,
      "inputs": [
        {
          "indexed": true,
          "internalType": "address",
          "name": "owner",
          "type": "address"
        },
        {
          "indexed": true,
          "internalType": "address",
          "name": "spender",
          "type": "address"
        },
        {
          "indexed": false,
          "internalType": "uint256",
          "name": "value",
          "type": "uint256"
        }
      ],
      "name": "Approval",
      "type": "event"
    },
    {
      "anonymous": false,
      "inputs": [
        {
          "indexed": false,
          "internalType": "uint8",
          "name": "version",
          "type": "uint8"
        }
      ],
      "name": "Initialized",
      "type": "event"
    },
    {
      "anonymous": false,
      "inputs": [
        {
          "indexed": true,
          "internalType": "address",
          "name": "previousOwner",
          "type": "address"
        },
        {
          "indexed": true,
          "internalType": "address",
          "name": "newOwner",
          "type": "address"
        }
      ],
      "name": "OwnershipTransferred",
      "type": "event"
    },
    {
      "anonymous": false,
      "inputs": [
        {
          "indexed": false,
          "internalType": "address",
          "name": "account",
          "type": "address"
        }
      ],
      "name": "Paused",
      "type": "event"
    },
    {
      "anonymous": false,
      "inputs": [
        {
          "indexed": true,
          "internalType": "bytes32",
          "name": "role",
          "type": "bytes32"
        },
        {
          "indexed": true,
          "internalType": "bytes32",
          "name": "previousAdminRole",
          "type": "bytes32"
        },
        {
          "indexed": true,
          "internalType": "bytes32",
          "name": "newAdminRole",
          "type": "bytes32"
        }
      ],
      "name": "RoleAdminChanged",
      "type": "event"
    },
    {
      "anonymous": false,
      "inputs": [
        {
          "indexed": true,
          "internalType": "bytes32",
          "name": "role",
          "type": "bytes32"
        },
        {
          "indexed": true,
          "internalType": "address",
          "name": "account",
          "type": "address"
        },
        {
          "indexed": true,
          "internalType": "address",
          "name": "sender",
          "type": "address"
        }
      ],
      "name": "RoleGranted",
      "type": "event"
    },
    {
      "anonymous": false,
      "inputs": [
        {
          "indexed": true,
          "internalType": "bytes32",
          "name": "role",
          "type": "bytes32"
        },
        {
          "indexed": true,
          "internalType": "address",
          "name": "account",
          "type": "address"
        },
        {
          "indexed": true,
          "internalType": "address",
          "name": "sender",
          "type": "address"
        }
      ],
      "name": "RoleRevoked",
      "type": "event"
    },
    {
      "anonymous": false,
      "inputs": [
        {
          "indexed": true,
          "internalType": "address",
          "name": "from",
          "type": "address"
        },
        {
          "indexed": true,
          "internalType": "address",
          "name": "to",
          "type": "address"
        },
        {
          "indexed": false,
          "internalType": "uint256",
          "name": "value",
          "type": "uint256"
        }
      ],
      "name": "Transfer",
      "type": "event"
    },
    {
      "anonymous": false,
      "inputs": [
        {
          "indexed": false,
          "internalType": "address",
          "name": "account",
          "type": "address"
        }
      ],
      "name": "Unpaused",
      "type": "event"
    },
    {
      "inputs": [],
      "name": "DEFAULT_ADMIN_ROLE",
      "outputs": [
        {
          "internalType": "bytes32",
          "name": "",
          "type": "bytes32"
        }
      ],
      "stateMutability": "view",
      "type": "function"
    },
    {
      "inputs": [],
      "name": "MINTER_ROLE",
      "outputs": [
        {
          "internalType": "bytes32",
          "name": "",
          "type": "bytes32"
        }
      ],
      "stateMutability": "view",
      "type": "function"
    },
    {
      "inputs": [],
      "name": "admin",
      "outputs": [
        {
          "internalType": "address",
          "name": "",
          "type": "address"
        }
      ],
      "stateMutability": "view",
      "type": "function"
    },
    {
      "inputs": [
        {
          "internalType": "address",
          "name": "owner",
          "type": "address"
        },
        {
          "internalType": "address",
          "name": "spender",
          "type": "address"
        }
      ],
      "name": "allowance",
      "outputs": [
        {
          "internalType": "uint256",
          "name": "",
          "type": "uint256"
        }
      ],
      "stateMutability": "view",
      "type": "function"
    },
    {
      "inputs": [
        {
          "internalType": "address",
          "name": "spender",
          "type": "address"
        },
        {
          "internalType": "uint256",
          "name": "amount",
          "type": "uint256"
        }
      ],
      "name": "approve",
      "outputs": [
        {
          "internalType": "bool",
          "name": "",
          "type": "bool"
        }
      ],
      "stateMutability": "nonpayable",
      "type": "function"
    },
    {
      "inputs": [
        {
          "internalType": "address",
          "name": "account",
          "type": "address"
        }
      ],
      "name": "balanceOf",
      "outputs": [
        {
          "internalType": "uint256",
          "name": "",
          "type": "uint256"
        }
      ],
      "stateMutability": "view",
      "type": "function"
    },
    {
      "inputs": [
        {
          "internalType": "uint256",
          "name": "amount",
          "type": "uint256"
        }
      ],
      "name": "burn",
      "outputs": [],
      "stateMutability": "nonpayable",
      "type": "function"
    },
    {
      "inputs": [],
      "name": "decimals",
      "outputs": [
        {
          "internalType": "uint8",
          "name": "",
          "type": "uint8"
        }
      ],
      "stateMutability": "view",
      "type": "function"
    },
    {
      "inputs": [
        {
          "internalType": "address",
          "name": "spender",
          "type": "address"
        },
        {
          "internalType": "uint256",
          "name": "subtractedValue",
          "type": "uint256"
        }
      ],
      "name": "decreaseAllowance",
      "outputs": [
        {
          "internalType": "bool",
          "name": "",
          "type": "bool"
        }
      ],
      "stateMutability": "nonpayable",
      "type": "function"
    },
    {
      "inputs": [
        {
          "internalType": "bytes32",
          "name": "role",
          "type": "bytes32"
        }
      ],
      "name": "getRoleAdmin",
      "outputs": [
        {
          "internalType": "bytes32",
          "name": "",
          "type": "bytes32"
        }
      ],
      "stateMutability": "view",
      "type": "function"
    },
    {
      "inputs": [
        {
          "internalType": "bytes32",
          "name": "role",
          "type": "bytes32"
        },
        {
          "internalType": "address",
          "name": "account",
          "type": "address"
        }
      ],
      "name": "grantRole",
      "outputs": [],
      "stateMutability": "nonpayable",
      "type": "function"
    },
    {
      "inputs": [
        {
          "internalType": "bytes32",
          "name": "role",
          "type": "bytes32"
        },
        {
          "internalType": "address",
          "name": "account",
          "type": "address"
        }
      ],
      "name": "hasRole",
      "outputs": [
        {
          "internalType": "bool",
          "name": "",
          "type": "bool"
        }
      ],
      "stateMutability": "view",
      "type": "function"
    },
    {
      "inputs": [],
      "name": "implementation",
      "outputs": [
        {
          "internalType": "address",
          "name": "",
          "type": "address"
        }
      ],
      "stateMutability": "view",
      "type": "function"
    },
    {
      "inputs": [
        {
          "internalType": "address",
          "name": "spender",
          "type": "address"
        },
        {
          "internalType": "uint256",
          "name": "addedValue",
          "type": "uint256"
        }
      ],
      "name": "increaseAllowance",
      "outputs": [
        {
          "internalType": "bool",
          "name": "",
          "type": "bool"
        }
      ],
      "stateMutability": "nonpayable",
      "type": "function"
    },
    {
      "inputs": [
        {
          "internalType": "string",
          "name": "name",
          "type": "string"
        },
        {
          "internalType": "string",
          "name": "symbol",
          "type": "string"
        },
        {
          "internalType": "uint256",
          "name": "initialSupply",
          "type": "uint256"
        },
        {
          "internalType": "address",
          "name": "_roleAdmin",
          "type": "address"
        }
      ],
      "name": "initialize",
      "outputs": [],
      "stateMutability": "nonpayable",
      "type": "function"
    },
    {
      "inputs": [
        {
          "internalType": "address",
          "name": "to",
          "type": "address"
        },
        {
          "internalType": "uint256",
          "name": "amount",
          "type": "uint256"
        }
      ],
      "name": "mint",
      "outputs": [],
      "stateMutability": "nonpayable",
      "type": "function"
    },
    {
      "inputs": [],
      "name": "name",
      "outputs": [
        {
          "internalType": "string",
          "name": "",
          "type": "string"
        }
      ],
      "stateMutability": "view",
      "type": "function"
    },
    {
      "inputs": [],
      "name": "owner",
      "outputs": [
        {
          "internalType": "address",
          "name": "",
          "type": "address"
        }
      ],
      "stateMutability": "view",
      "type": "function"
    },
    {
      "inputs": [],
      "name": "pause",
      "outputs": [],
      "stateMutability": "nonpayable",
      "type": "function"
    },
    {
      "inputs": [],
      "name": "paused",
      "outputs": [
        {
          "internalType": "bool",
          "name": "",
          "type": "bool"
        }
      ],
      "stateMutability": "view",
      "type": "function"
    },
    {
      "inputs": [],
      "name": "renounceOwnership",
      "outputs": [],
      "stateMutability": "nonpayable",
      "type": "function"
    },
    {
      "inputs": [
        {
          "internalType": "bytes32",
          "name": "role",
          "type": "bytes32"
        },
        {
          "internalType": "address",
          "name": "account",
          "type": "address"
        }
      ],
      "name": "renounceRole",
      "outputs": [],
      "stateMutability": "nonpayable",
      "type": "function"
    },
    {
      "inputs": [
        {
          "internalType": "bytes32",
          "name": "role",
          "type": "bytes32"
        },
        {
          "internalType": "address",
          "name": "account",
          "type": "address"
        }
      ],
      "name": "revokeRole",
      "outputs": [],
      "stateMutability": "nonpayable",
      "type": "function"
    },
    {
      "inputs": [
        {
          "internalType": "bytes4",
          "name": "interfaceId",
          "type": "bytes4"
        }
      ],
      "name": "supportsInterface",
      "outputs": [
        {
          "internalType": "bool",
          "name": "",
          "type": "bool"
        }
      ],
      "stateMutability": "view",
      "type": "function"
    },
    {
      "inputs": [],
      "name": "symbol",
      "outputs": [
        {
          "internalType": "string",
          "name": "",
          "type": "string"
        }
      ],
      "stateMutability": "view",
      "type": "function"
    },
    {
      "inputs": [],
      "name": "totalSupply",
      "outputs": [
        {
          "internalType": "uint256",
          "name": "",
          "type": "uint256"
        }
      ],
      "stateMutability": "view",
      "type": "function"
    },
    {
      "inputs": [
        {
          "internalType": "address",
          "name": "to",
          "type": "address"
        },
        {
          "internalType": "uint256",
          "name": "amount",
          "type": "uint256"
        }
      ],
      "name": "transfer",
      "outputs": [
        {
          "internalType": "bool",
          "name": "",
          "type": "bool"
        }
      ],
      "stateMutability": "nonpayable",
      "type": "function"
    },
    {
      "inputs": [
        {
          "internalType": "address",
          "name": "from",
          "type": "address"
        },
        {
          "internalType": "address",
          "name": "to",
          "type": "address"
        },
        {
          "internalType": "uint256",
          "name": "amount",
          "type": "uint256"
        }
      ],
      "name": "transferFrom",
      "outputs": [
        {
          "internalType": "bool",
          "name": "",
          "type": "bool"
        }
      ],
      "stateMutability": "nonpayable",
      "type": "function"
    },
    {
      "inputs": [
        {
          "internalType": "address",
          "name": "newOwner",
          "type": "address"
        }
      ],
      "name": "transferOwnership",
      "outputs": [],
      "stateMutability": "nonpayable",
      "type": "function"
    },
    {
      "inputs": [],
      "name": "unpause",
      "outputs": [],
      "stateMutability": "nonpayable",
      "type": "function"
    }
  ],
  "bytecode": "0x608060405234801561001057600080fd5b5061373d806100206000396000f3fe608060405234801561001057600080fd5b50600436106101da5760003560e01c806370a0823111610104578063a457c2d7116100a2578063d547741f11610071578063d547741f14610547578063dd62ed3e14610563578063f2fde38b14610593578063f851a440146105af576101da565b8063a457c2d7146104ad578063a9059cbb146104dd578063bd3a13f61461050d578063d539139314610529576101da565b80638da5cb5b116100de5780638da5cb5b1461042357806391d148541461044157806395d89b4114610471578063a217fddf1461048f576101da565b806370a08231146103df578063715018a61461040f5780638456cb5914610419576101da565b8063313ce5671161017c57806340c10f191161014b57806340c10f191461036b57806342966c68146103875780635c60da1b146103a35780635c975abb146103c1576101da565b8063313ce567146102f757806336568abe1461031557806339509351146103315780633f4ba83a14610361576101da565b806318160ddd116101b857806318160ddd1461025d57806323b872dd1461027b578063248a9ca3146102ab5780632f2ff15d146102db576101da565b806301ffc9a7146101df57806306fdde031461020f578063095ea7b31461022d575b600080fd5b6101f960048036038101906101f49190612266565b6105cd565b60405161020691906122ae565b60405180910390f35b610217610647565b6040516102249190612359565b60405180910390f35b6102476004803603810190610242919061240f565b6106d9565b60405161025491906122ae565b60405180910390f35b6102656106fc565b604051610272919061245e565b60405180910390f35b61029560048036038101906102909190612479565b610706565b6040516102a291906122ae565b60405180910390f35b6102c560048036038101906102c09190612502565b610735565b6040516102d2919061253e565b60405180910390f35b6102f560048036038101906102f09190612559565b610756565b005b6102ff610777565b60405161030c91906125b5565b60405180910390f35b61032f600480360381019061032a9190612559565b610780565b005b61034b6004803603810190610346919061240f565b610803565b60405161035891906122ae565b60405180910390f35b61036961083a565b005b6103856004803603810190610380919061240f565b61084c565b005b6103a1600480360381019061039c91906125d0565b610885565b005b6103ab6108f3565b6040516103b8919061260c565b60405180910390f35b6103c961091a565b6040516103d691906122ae565b60405180910390f35b6103f960048036038101906103f49190612627565b610931565b604051610406919061245e565b60405180910390f35b61041761097a565b005b61042161098e565b005b61042b6109a0565b604051610438919061260c565b60405180910390f35b61045b60048036038101906104569190612559565b6109ca565b60405161046891906122ae565b60405180910390f35b610479610a36565b6040516104869190612359565b60405180910390f35b610497610ac8565b6040516104a4919061253e565b60405180910390f35b6104c760048036038101906104c2919061240f565b610acf565b6040516104d491906122ae565b60405180910390f35b6104f760048036038101906104f2919061240f565b610b46565b60405161050491906122ae565b60405180910390f35b61052760048036038101906105229190612789565b610b69565b005b610531610d15565b60405161053e919061253e565b60405180910390f35b610561600480360381019061055c9190612559565b610d39565b005b61057d60048036038101906105789190612828565b610d5a565b60405161058a919061245e565b60405180910390f35b6105ad60048036038101906105a89190612627565b610de1565b005b6105b7610e64565b6040516105c4919061260c565b60405180910390f35b60007f7965db0b000000000000000000000000000000000000000000000000000000007bffffffffffffffffffffffffffffffffffffffffffffffffffffffff1916827bffffffffffffffffffffffffffffffffffffffffffffffffffffffff19161480610640575061063f82610e8b565b5b9050919050565b60606036805461065690612897565b80601f016020809104026020016040519081016040528092919081815260200182805461068290612897565b80156106cf5780601f106106a4576101008083540402835291602001916106cf565b820191906000526020600020905b8154815290600101906020018083116106b257829003601f168201915b5050505050905090565b6000806106e4610ef5565b90506106f1818585610efd565b600191505092915050565b6000603554905090565b600080610711610ef5565b905061071e8582856110c6565b610729858585611152565b60019150509392505050565b600061012d6000838152602001908152602001600020600101549050919050565b61075f82610735565b610768816113cb565b61077283836113df565b505050565b60006012905090565b610788610ef5565b73ffffffffffffffffffffffffffffffffffffffff168173ffffffffffffffffffffffffffffffffffffffff16146107f5576040517f08c379a00000000000000000000000000000000000000000000000000000000081526004016107ec9061293a565b60405180910390fd5b6107ff82826114c1565b5050565b60008061080e610ef5565b905061082f8185856108208589610d5a565b61082a9190612989565b610efd565b600191505092915050565b6108426115a4565b61084a611622565b565b7f9f2df0fed2c77648de5860a4cc508cd0818c85b8b8a1ab4ceeef8d981c8956a6610876816113cb565b6108808383611685565b505050565b61088d6117dc565b8061089e610899610ef5565b610931565b10156108df576040517f08c379a00000000000000000000000000000000000000000000000000000000081526004016108d690612a2f565b60405180910390fd5b6108f06108ea610ef5565b82611826565b50565b61016060009054906101000a900473ffffffffffffffffffffffffffffffffffffffff1681565b6000609760009054906101000a900460ff16905090565b6000603360008373ffffffffffffffffffffffffffffffffffffffff1673ffffffffffffffffffffffffffffffffffffffff168152602001908152602001600020549050919050565b6109826115a4565b61098c60006119f5565b565b6109966115a4565b61099e611abb565b565b600060c960009054906101000a900473ffffffffffffffffffffffffffffffffffffffff16905090565b600061012d600084815260200190815260200160002060000160008373ffffffffffffffffffffffffffffffffffffffff1673ffffffffffffffffffffffffffffffffffffffff16815260200190815260200160002060009054906101000a900460ff16905092915050565b606060378054610a4590612897565b80601f0160208091040260200160405190810160405280929190818152602001828054610a7190612897565b8015610abe5780601f10610a9357610100808354040283529160200191610abe565b820191906000526020600020905b815481529060010190602001808311610aa157829003601f168201915b5050505050905090565b6000801b81565b600080610ada610ef5565b90506000610ae88286610d5a565b905083811015610b2d576040517f08c379a0000000000000000000000000000000000000000000000000000000008152600401610b2490612ac1565b60405180910390fd5b610b3a8286868403610efd565b60019250505092915050565b600080610b51610ef5565b9050610b5e818585611152565b600191505092915050565b60008060019054906101000a900460ff16159050808015610b9a5750600160008054906101000a900460ff1660ff16105b80610bc75750610ba930611b1e565b158015610bc65750600160008054906101000a900460ff1660ff16145b5b610c06576040517f08c379a0000000000000000000000000000000000000000000000000000000008152600401610bfd90612b53565b60405180910390fd5b60016000806101000a81548160ff021916908360ff1602179055508015610c43576001600060016101000a81548160ff0219169083151502179055505b610c4d8585611b41565b610c55611b9e565b610c5d611bf7565b610c65611c50565b610c6d611ca9565b610c7e610c78610ef5565b84611685565b610c8b6000801b83611cfa565b610cb57f9f2df0fed2c77648de5860a4cc508cd0818c85b8b8a1ab4ceeef8d981c8956a683611cfa565b8015610d0e5760008060016101000a81548160ff0219169083151502179055507f7f26b83ff96e1f2b6a682f133852f6798a09c465da95921460cefb38474024986001604051610d059190612bb8565b60405180910390a15b5050505050565b7f9f2df0fed2c77648de5860a4cc508cd0818c85b8b8a1ab4ceeef8d981c8956a681565b610d4282610735565b610d4b816113cb565b610d5583836114c1565b505050565b6000603460008473ffffffffffffffffffffffffffffffffffffffff1673ffffffffffffffffffffffffffffffffffffffff16815260200190815260200160002060008373ffffffffffffffffffffffffffffffffffffffff1673ffffffffffffffffffffffffffffffffffffffff16815260200190815260200160002054905092915050565b610de96115a4565b600073ffffffffffffffffffffffffffffffffffffffff168173ffffffffffffffffffffffffffffffffffffffff1603610e58576040517f08c379a0000000000000000000000000000000000000000000000000000000008152600401610e4f90612c45565b60405180910390fd5b610e61816119f5565b50565b61015f60009054906101000a900473ffffffffffffffffffffffffffffffffffffffff1681565b60007f01ffc9a7000000000000000000000000000000000000000000000000000000007bffffffffffffffffffffffffffffffffffffffffffffffffffffffff1916827bffffffffffffffffffffffffffffffffffffffffffffffffffffffff1916149050919050565b600033905090565b600073ffffffffffffffffffffffffffffffffffffffff168373ffffffffffffffffffffffffffffffffffffffff1603610f6c576040517f08c379a0000000000000000000000000000000000000000000000000000000008152600401610f6390612cd7565b60405180910390fd5b600073ffffffffffffffffffffffffffffffffffffffff168273ffffffffffffffffffffffffffffffffffffffff1603610fdb576040517f08c379a0000000000000000000000000000000000000000000000000000000008152600401610fd290612d69565b60405180910390fd5b80603460008573ffffffffffffffffffffffffffffffffffffffff1673ffffffffffffffffffffffffffffffffffffffff16815260200190815260200160002060008473ffffffffffffffffffffffffffffffffffffffff1673ffffffffffffffffffffffffffffffffffffffff168152602001908152602001600020819055508173ffffffffffffffffffffffffffffffffffffffff168373ffffffffffffffffffffffffffffffffffffffff167f8c5be1e5ebec7d5bd14f71427d1e84f3dd0314c0f7b2291e5b200ac8c7c3b925836040516110b9919061245e565b60405180910390a3505050565b60006110d28484610d5a565b90507fffffffffffffffffffffffffffffffffffffffffffffffffffffffffffffffff811461114c578181101561113e576040517f08c379a000000000000000000000000000000000000000000000000000000000815260040161113590612dd5565b60405180910390fd5b61114b8484848403610efd565b5b50505050565b600073ffffffffffffffffffffffffffffffffffffffff168373ffffffffffffffffffffffffffffffffffffffff16036111c1576040517f08c379a00000000000000000000000000000000000000000000000000000000081526004016111b890612e67565b60405180910390fd5b600073ffffffffffffffffffffffffffffffffffffffff168273ffffffffffffffffffffffffffffffffffffffff1603611230576040517f08c379a000000000000000000000000000000000000000000000000000000000815260040161122790612ef9565b60405180910390fd5b61123b838383611d08565b6000603360008573ffffffffffffffffffffffffffffffffffffffff1673ffffffffffffffffffffffffffffffffffffffff168152602001908152602001600020549050818110156112c2576040517f08c379a00000000000000000000000000000000000000000000000000000000081526004016112b990612f8b565b60405180910390fd5b818103603360008673ffffffffffffffffffffffffffffffffffffffff1673ffffffffffffffffffffffffffffffffffffffff1681526020019081526020016000208190555081603360008573ffffffffffffffffffffffffffffffffffffffff1673ffffffffffffffffffffffffffffffffffffffff168152602001908152602001600020600082825401925050819055508273ffffffffffffffffffffffffffffffffffffffff168473ffffffffffffffffffffffffffffffffffffffff167fddf252ad1be2c89b69c2b068fc378daa952ba7f163c4a11628f55a4df523b3ef846040516113b2919061245e565b60405180910390a36113c5848484611d20565b50505050565b6113dc816113d7610ef5565b611d25565b50565b6113e982826109ca565b6114bd57600161012d600084815260200190815260200160002060000160008373ffffffffffffffffffffffffffffffffffffffff1673ffffffffffffffffffffffffffffffffffffffff16815260200190815260200160002060006101000a81548160ff021916908315150217905550611462610ef5565b73ffffffffffffffffffffffffffffffffffffffff168173ffffffffffffffffffffffffffffffffffffffff16837f2f8788117e7eff1d82e926ec794901d17c78024a50270940304540a733656f0d60405160405180910390a45b5050565b6114cb82826109ca565b156115a057600061012d600084815260200190815260200160002060000160008373ffffffffffffffffffffffffffffffffffffffff1673ffffffffffffffffffffffffffffffffffffffff16815260200190815260200160002060006101000a81548160ff021916908315150217905550611545610ef5565b73ffffffffffffffffffffffffffffffffffffffff168173ffffffffffffffffffffffffffffffffffffffff16837ff6391f5c32d9c69d2a47ea670b442974b53935d1edc7fd64eb21e047a839171b60405160405180910390a45b5050565b6115ac610ef5565b73ffffffffffffffffffffffffffffffffffffffff166115ca6109a0565b73ffffffffffffffffffffffffffffffffffffffff1614611620576040517f08c379a000000000000000000000000000000000000000000000000000000000815260040161161790612ff7565b60405180910390fd5b565b61162a611daa565b6000609760006101000a81548160ff0219169083151502179055507f5db9ee0a495bf2e6ff9c91a7834c1ba4fdd244a5e8aa4e537bd38aeae4b073aa61166e610ef5565b60405161167b919061260c565b60405180910390a1565b600073ffffffffffffffffffffffffffffffffffffffff168273ffffffffffffffffffffffffffffffffffffffff16036116f4576040517f08c379a00000000000000000000000000000000000000000000000000000000081526004016116eb90613063565b60405180910390fd5b61170060008383611d08565b80603560008282546117129190612989565b9250508190555080603360008473ffffffffffffffffffffffffffffffffffffffff1673ffffffffffffffffffffffffffffffffffffffff168152602001908152602001600020600082825401925050819055508173ffffffffffffffffffffffffffffffffffffffff16600073ffffffffffffffffffffffffffffffffffffffff167fddf252ad1be2c89b69c2b068fc378daa952ba7f163c4a11628f55a4df523b3ef836040516117c4919061245e565b60405180910390a36117d860008383611d20565b5050565b6117e461091a565b15611824576040517f08c379a000000000000000000000000000000000000000000000000000000000815260040161181b906130cf565b60405180910390fd5b565b600073ffffffffffffffffffffffffffffffffffffffff168273ffffffffffffffffffffffffffffffffffffffff1603611895576040517f08c379a000000000000000000000000000000000000000000000000000000000815260040161188c90613161565b60405180910390fd5b6118a182600083611d08565b6000603360008473ffffffffffffffffffffffffffffffffffffffff1673ffffffffffffffffffffffffffffffffffffffff16815260200190815260200160002054905081811015611928576040517f08c379a000000000000000000000000000000000000000000000000000000000815260040161191f90612a2f565b60405180910390fd5b818103603360008573ffffffffffffffffffffffffffffffffffffffff1673ffffffffffffffffffffffffffffffffffffffff1681526020019081526020016000208190555081603560008282540392505081905550600073ffffffffffffffffffffffffffffffffffffffff168373ffffffffffffffffffffffffffffffffffffffff167fddf252ad1be2c89b69c2b068fc378daa952ba7f163c4a11628f55a4df523b3ef846040516119dc919061245e565b60405180910390a36119f083600084611d20565b505050565b600060c960009054906101000a900473ffffffffffffffffffffffffffffffffffffffff1690508160c960006101000a81548173ffffffffffffffffffffffffffffffffffffffff021916908373ffffffffffffffffffffffffffffffffffffffff1602179055508173ffffffffffffffffffffffffffffffffffffffff168173ffffffffffffffffffffffffffffffffffffffff167f8be0079c531659141344cd1fd0a4f28419497f9722a3daafe3b4186f6b6457e060405160405180910390a35050565b611ac36117dc565b6001609760006101000a81548160ff0219169083151502179055507f62e78cea01bee320cd4e420270b5ea74000d11b0c9f74754ebdbfc544b05a258611b07610ef5565b604051611b14919061260c565b60405180910390a1565b6000808273ffffffffffffffffffffffffffffffffffffffff163b119050919050565b600060019054906101000a900460ff16611b90576040517f08c379a0000000000000000000000000000000000000000000000000000000008152600401611b87906131f3565b60405180910390fd5b611b9a8282611df3565b5050565b600060019054906101000a900460ff16611bed576040517f08c379a0000000000000000000000000000000000000000000000000000000008152600401611be4906131f3565b60405180910390fd5b611bf5611e66565b565b600060019054906101000a900460ff16611c46576040517f08c379a0000000000000000000000000000000000000000000000000000000008152600401611c3d906131f3565b60405180910390fd5b611c4e611ebf565b565b600060019054906101000a900460ff16611c9f576040517f08c379a0000000000000000000000000000000000000000000000000000000008152600401611c96906131f3565b60405180910390fd5b611ca7611f2b565b565b600060019054906101000a900460ff16611cf8576040517f08c379a0000000000000000000000000000000000000000000000000000000008152600401611cef906131f3565b60405180910390fd5b565b611d0482826113df565b5050565b611d106117dc565b611d1b838383611f8c565b505050565b505050565b611d2f82826109ca565b611da657611d3c81611f91565b611d4a8360001c6020611fbe565b604051602001611d5b9291906132e7565b6040516020818303038152906040526040517f08c379a0000000000000000000000000000000000000000000000000000000008152600401611d9d9190612359565b60405180910390fd5b5050565b611db261091a565b611df1576040517f08c379a0000000000000000000000000000000000000000000000000000000008152600401611de89061336d565b60405180910390fd5b565b600060019054906101000a900460ff16611e42576040517f08c379a0000000000000000000000000000000000000000000000000000000008152600401611e39906131f3565b60405180910390fd5b8160369081611e51919061352f565b508060379081611e61919061352f565b505050565b600060019054906101000a900460ff16611eb5576040517f08c379a0000000000000000000000000000000000000000000000000000000008152600401611eac906131f3565b60405180910390fd5b6001606581905550565b600060019054906101000a900460ff16611f0e576040517f08c379a0000000000000000000000000000000000000000000000000000000008152600401611f05906131f3565b60405180910390fd5b6000609760006101000a81548160ff021916908315150217905550565b600060019054906101000a900460ff16611f7a576040517f08c379a0000000000000000000000000000000000000000000000000000000008152600401611f71906131f3565b60405180910390fd5b611f8a611f85610ef5565b6119f5565b565b505050565b6060611fb78273ffffffffffffffffffffffffffffffffffffffff16601460ff16611fbe565b9050919050565b606060006002836002611fd19190613601565b611fdb9190612989565b67ffffffffffffffff811115611ff457611ff361265e565b5b6040519080825280601f01601f1916602001820160405280156120265781602001600182028036833780820191505090505b5090507f30000000000000000000000000000000000000000000000000000000000000008160008151811061205e5761205d613643565b5b60200101907effffffffffffffffffffffffffffffffffffffffffffffffffffffffffffff1916908160001a9053507f7800000000000000000000000000000000000000000000000000000000000000816001815181106120c2576120c1613643565b5b60200101907effffffffffffffffffffffffffffffffffffffffffffffffffffffffffffff1916908160001a905350600060018460026121029190613601565b61210c9190612989565b90505b60018111156121ac577f3031323334353637383961626364656600000000000000000000000000000000600f86166010811061214e5761214d613643565b5b1a60f81b82828151811061216557612164613643565b5b60200101907effffffffffffffffffffffffffffffffffffffffffffffffffffffffffffff1916908160001a905350600485901c9450806121a590613672565b905061210f565b50600084146121f0576040517f08c379a00000000000000000000000000000000000000000000000000000000081526004016121e7906136e7565b60405180910390fd5b8091505092915050565b6000604051905090565b600080fd5b600080fd5b60007fffffffff0000000000000000000000000000000000000000000000000000000082169050919050565b6122438161220e565b811461224e57600080fd5b50565b6000813590506122608161223a565b92915050565b60006020828403121561227c5761227b612204565b5b600061228a84828501612251565b91505092915050565b60008115159050919050565b6122a881612293565b82525050565b60006020820190506122c3600083018461229f565b92915050565b600081519050919050565b600082825260208201905092915050565b60005b838110156123035780820151818401526020810190506122e8565b60008484015250505050565b6000601f19601f8301169050919050565b600061232b826122c9565b61233581856122d4565b93506123458185602086016122e5565b61234e8161230f565b840191505092915050565b600060208201905081810360008301526123738184612320565b905092915050565b600073ffffffffffffffffffffffffffffffffffffffff82169050919050565b60006123a68261237b565b9050919050565b6123b68161239b565b81146123c157600080fd5b50565b6000813590506123d3816123ad565b92915050565b6000819050919050565b6123ec816123d9565b81146123f757600080fd5b50565b600081359050612409816123e3565b92915050565b6000806040838503121561242657612425612204565b5b6000612434858286016123c4565b9250506020612445858286016123fa565b9150509250929050565b612458816123d9565b82525050565b6000602082019050612473600083018461244f565b92915050565b60008060006060848603121561249257612491612204565b5b60006124a0868287016123c4565b93505060206124b1868287016123c4565b92505060406124c2868287016123fa565b9150509250925092565b6000819050919050565b6124df816124cc565b81146124ea57600080fd5b50565b6000813590506124fc816124d6565b92915050565b60006020828403121561251857612517612204565b5b6000612526848285016124ed565b91505092915050565b612538816124cc565b82525050565b6000602082019050612553600083018461252f565b92915050565b600080604083850312156125705761256f612204565b5b600061257e858286016124ed565b925050602061258f858286016123c4565b9150509250929050565b600060ff82169050919050565b6125af81612599565b82525050565b60006020820190506125ca60008301846125a6565b92915050565b6000602082840312156125e6576125e5612204565b5b60006125f4848285016123fa565b91505092915050565b6126068161239b565b82525050565b600060208201905061262160008301846125fd565b92915050565b60006020828403121561263d5761263c612204565b5b600061264b848285016123c4565b91505092915050565b600080fd5b600080fd5b7f4e487b7100000000000000000000000000000000000000000000000000000000600052604160045260246000fd5b6126968261230f565b810181811067ffffffffffffffff821117156126b5576126b461265e565b5b80604052505050565b60006126c86121fa565b90506126d4828261268d565b919050565b600067ffffffffffffffff8211156126f4576126f361265e565b5b6126fd8261230f565b9050602081019050919050565b82818337600083830152505050565b600061272c612727846126d9565b6126be565b90508281526020810184848401111561274857612747612659565b5b61275384828561270a565b509392505050565b600082601f8301126127705761276f612654565b5b8135612780848260208601612719565b91505092915050565b600080600080608085870312156127a3576127a2612204565b5b600085013567ffffffffffffffff8111156127c1576127c0612209565b5b6127cd8782880161275b565b945050602085013567ffffffffffffffff8111156127ee576127ed612209565b5b6127fa8782880161275b565b935050604061280b878288016123fa565b925050606061281c878288016123c4565b91505092959194509250565b6000806040838503121561283f5761283e612204565b5b600061284d858286016123c4565b925050602061285e858286016123c4565b9150509250929050565b7f4e487b7100000000000000000000000000000000000000000000000000000000600052602260045260246000fd5b600060028204905060018216806128af57607f821691505b6020821081036128c2576128c1612868565b5b50919050565b7f416363657373436f6e74726f6c3a2063616e206f6e6c792072656e6f756e636560008201527f20726f6c657320666f722073656c660000000000000000000000000000000000602082015250565b6000612924602f836122d4565b915061292f826128c8565b604082019050919050565b6000602082019050818103600083015261295381612917565b9050919050565b7f4e487b7100000000000000000000000000000000000000000000000000000000600052601160045260246000fd5b6000612994826123d9565b915061299f836123d9565b92508282019050808211156129b7576129b661295a565b5b92915050565b7f45524332303a206275726e20616d6f756e7420657863656564732062616c616e60008201527f6365000000000000000000000000000000000000000000000000000000000000602082015250565b6000612a196022836122d4565b9150612a24826129bd565b604082019050919050565b60006020820190508181036000830152612a4881612a0c565b9050919050565b7f45524332303a2064656372656173656420616c6c6f77616e63652062656c6f7760008201527f207a65726f000000000000000000000000000000000000000000000000000000602082015250565b6000612aab6025836122d4565b9150612ab682612a4f565b604082019050919050565b60006020820190508181036000830152612ada81612a9e565b9050919050565b7f496e697469616c697a61626c653a20636f6e747261637420697320616c72656160008201527f647920696e697469616c697a6564000000000000000000000000000000000000602082015250565b6000612b3d602e836122d4565b9150612b4882612ae1565b604082019050919050565b60006020820190508181036000830152612b6c81612b30565b9050919050565b6000819050919050565b6000819050919050565b6000612ba2612b9d612b9884612b73565b612b7d565b612599565b9050919050565b612bb281612b87565b82525050565b6000602082019050612bcd6000830184612ba9565b92915050565b7f4f776e61626c653a206e6577206f776e657220697320746865207a65726f206160008201527f6464726573730000000000000000000000000000000000000000000000000000602082015250565b6000612c2f6026836122d4565b9150612c3a82612bd3565b604082019050919050565b60006020820190508181036000830152612c5e81612c22565b9050919050565b7f45524332303a20617070726f76652066726f6d20746865207a65726f2061646460008201527f7265737300000000000000000000000000000000000000000000000000000000602082015250565b6000612cc16024836122d4565b9150612ccc82612c65565b604082019050919050565b60006020820190508181036000830152612cf081612cb4565b9050919050565b7f45524332303a20617070726f766520746f20746865207a65726f20616464726560008201527f7373000000000000000000000000000000000000000000000000000000000000602082015250565b6000612d536022836122d4565b9150612d5e82612cf7565b604082019050919050565b60006020820190508181036000830152612d8281612d46565b9050919050565b7f45524332303a20696e73756666696369656e7420616c6c6f77616e6365000000600082015250565b6000612dbf601d836122d4565b9150612dca82612d89565b602082019050919050565b60006020820190508181036000830152612dee81612db2565b9050919050565b7f45524332303a207472616e736665722066726f6d20746865207a65726f20616460008201527f6472657373000000000000000000000000000000000000000000000000000000602082015250565b6000612e516025836122d4565b9150612e5c82612df5565b604082019050919050565b60006020820190508181036000830152612e8081612e44565b9050919050565b7f45524332303a207472616e7366657220746f20746865207a65726f206164647260008201527f6573730000000000000000000000000000000000000000000000000000000000602082015250565b6000612ee36023836122d4565b9150612eee82612e87565b604082019050919050565b60006020820190508181036000830152612f1281612ed6565b9050919050565b7f45524332303a207472616e7366657220616d6f756e742065786365656473206260008201527f616c616e63650000000000000000000000000000000000000000000000000000602082015250565b6000612f756026836122d4565b9150612f8082612f19565b604082019050919050565b60006020820190508181036000830152612fa481612f68565b9050919050565b7f4f776e61626c653a2063616c6c6572206973206e6f7420746865206f776e6572600082015250565b6000612fe16020836122d4565b9150612fec82612fab565b602082019050919050565b6000602082019050818103600083015261301081612fd4565b9050919050565b7f45524332303a206d696e7420746f20746865207a65726f206164647265737300600082015250565b600061304d601f836122d4565b915061305882613017565b602082019050919050565b6000602082019050818103600083015261307c81613040565b9050919050565b7f5061757361626c653a2070617573656400000000000000000000000000000000600082015250565b60006130b96010836122d4565b91506130c482613083565b602082019050919050565b600060208201905081810360008301526130e8816130ac565b9050919050565b7f45524332303a206275726e2066726f6d20746865207a65726f2061646472657360008201527f7300000000000000000000000000000000000000000000000000000000000000602082015250565b600061314b6021836122d4565b9150613156826130ef565b604082019050919050565b6000602082019050818103600083015261317a8161313e565b9050919050565b7f496e697469616c697a61626c653a20636f6e7472616374206973206e6f74206960008201527f6e697469616c697a696e67000000000000000000000000000000000000000000602082015250565b60006131dd602b836122d4565b91506131e882613181565b604082019050919050565b6000602082019050818103600083015261320c816131d0565b9050919050565b600081905092915050565b7f416363657373436f6e74726f6c3a206163636f756e7420000000000000000000600082015250565b6000613254601783613213565b915061325f8261321e565b601782019050919050565b6000613275826122c9565b61327f8185613213565b935061328f8185602086016122e5565b80840191505092915050565b7f206973206d697373696e6720726f6c6520000000000000000000000000000000600082015250565b60006132d1601183613213565b91506132dc8261329b565b601182019050919050565b60006132f282613247565b91506132fe828561326a565b9150613309826132c4565b9150613315828461326a565b91508190509392505050565b7f5061757361626c653a206e6f7420706175736564000000000000000000000000600082015250565b60006133576014836122d4565b915061336282613321565b602082019050919050565b600060208201905081810360008301526133868161334a565b9050919050565b60008190508160005260206000209050919050565b60006020601f8301049050919050565b600082821b905092915050565b6000600883026133ef7fffffffffffffffffffffffffffffffffffffffffffffffffffffffffffffffff826133b2565b6133f986836133b2565b95508019841693508086168417925050509392505050565b600061342c613427613422846123d9565b612b7d565b6123d9565b9050919050565b6000819050919050565b61344683613411565b61345a61345282613433565b8484546133bf565b825550505050565b600090565b61346f613462565b61347a81848461343d565b505050565b5b8181101561349e57613493600082613467565b600181019050613480565b5050565b601f8211156134e3576134b48161338d565b6134bd846133a2565b810160208510156134cc578190505b6134e06134d8856133a2565b83018261347f565b50505b505050565b600082821c905092915050565b6000613506600019846008026134e8565b1980831691505092915050565b600061351f83836134f5565b9150826002028217905092915050565b613538826122c9565b67ffffffffffffffff8111156135515761355061265e565b5b61355b8254612897565b6135668282856134a2565b600060209050601f8311600181146135995760008415613587578287015190505b6135918582613513565b8655506135f9565b601f1984166135a78661338d565b60005b828110156135cf578489015182556001820191506020850194506020810190506135aa565b868310156135ec57848901516135e8601f8916826134f5565b8355505b6001600288020188555050505b505050505050565b600061360c826123d9565b9150613617836123d9565b9250828202613625816123d9565b9150828204841483151761363c5761363b61295a565b5b5092915050565b7f4e487b7100000000000000000000000000000000000000000000000000000000600052603260045260246000fd5b600061367d826123d9565b9150600082036136905761368f61295a565b5b600182039050919050565b7f537472696e67733a20686578206c656e67746820696e73756666696369656e74600082015250565b60006136d16020836122d4565b91506136dc8261369b565b602082019050919050565b60006020820190508181036000830152613700816136c4565b905091905056fea2646970667358221220ef5bd5cb3852fd3c5b4c2b8e85f78cb4ac25c4a0dbc2fb9c0feef5ee1514c63364736f6c63430008130033",
  "linkReferences": {},
  "deployedLinkReferences": {}
}